{
  "contractName": "asset",
  "abi": [
    {
      "inputs": [],
      "payable": false,
      "stateMutability": "nonpayable",
      "type": "constructor"
    },
    {
      "constant": true,
      "inputs": [],
      "name": "originator",
      "outputs": [
        {
          "internalType": "address",
          "name": "",
          "type": "address"
        }
      ],
      "payable": false,
      "stateMutability": "view",
      "type": "function"
    },
    {
      "constant": true,
      "inputs": [
        {
          "internalType": "uint256",
          "name": "",
          "type": "uint256"
        }
      ],
      "name": "properties",
      "outputs": [
        {
          "internalType": "uint256",
          "name": "id",
          "type": "uint256"
        },
        {
          "internalType": "enum asset.Status",
          "name": "status",
          "type": "uint8"
        },
        {
          "internalType": "uint256",
          "name": "value",
          "type": "uint256"
        },
        {
          "internalType": "address",
          "name": "currOwner",
          "type": "address"
        },
        {
          "internalType": "uint256",
          "name": "size",
          "type": "uint256"
        },
        {
          "internalType": "string",
          "name": "state",
          "type": "string"
        },
        {
          "internalType": "string",
          "name": "district",
          "type": "string"
        },
        {
          "internalType": "uint256",
          "name": "surveyNumber",
          "type": "uint256"
        }
      ],
      "payable": false,
      "stateMutability": "view",
      "type": "function"
    },
    {
      "constant": true,
      "inputs": [
        {
          "internalType": "uint256",
          "name": "",
          "type": "uint256"
        }
      ],
      "name": "propertiesUnderTxn",
      "outputs": [
        {
          "internalType": "address",
          "name": "",
          "type": "address"
        }
      ],
      "payable": false,
      "stateMutability": "view",
      "type": "function"
    },
    {
      "constant": true,
      "inputs": [
        {
          "internalType": "address",
          "name": "",
          "type": "address"
        }
      ],
      "name": "users",
      "outputs": [
        {
          "internalType": "int256",
          "name": "",
          "type": "int256"
        }
      ],
      "payable": false,
      "stateMutability": "view",
      "type": "function"
    },
    {
      "constant": true,
      "inputs": [
        {
          "internalType": "address",
          "name": "",
          "type": "address"
        }
      ],
      "name": "verifiedUsers",
      "outputs": [
        {
          "internalType": "bool",
          "name": "",
          "type": "bool"
        }
      ],
      "payable": false,
      "stateMutability": "view",
      "type": "function"
    },
    {
      "constant": false,
      "inputs": [
        {
          "internalType": "address",
          "name": "_newUser",
          "type": "address"
        }
      ],
      "name": "addNewUser",
      "outputs": [
        {
          "internalType": "bool",
          "name": "",
          "type": "bool"
        }
      ],
      "payable": false,
      "stateMutability": "nonpayable",
      "type": "function"
    },
    {
      "constant": false,
      "inputs": [
        {
          "internalType": "address",
          "name": "_newAuthority",
          "type": "address"
        }
      ],
      "name": "addAuthority",
      "outputs": [
        {
          "internalType": "bool",
          "name": "",
          "type": "bool"
        }
      ],
      "payable": false,
      "stateMutability": "nonpayable",
      "type": "function"
    },
    {
      "constant": false,
      "inputs": [
        {
          "internalType": "address",
          "name": "_newUser",
          "type": "address"
        }
      ],
      "name": "approveUsers",
      "outputs": [
        {
          "internalType": "bool",
          "name": "",
          "type": "bool"
        }
      ],
      "payable": false,
      "stateMutability": "nonpayable",
      "type": "function"
    },
    {
      "constant": false,
      "inputs": [
        {
          "internalType": "uint256",
          "name": "_value",
          "type": "uint256"
        },
        {
          "internalType": "address",
          "name": "_currOwner",
          "type": "address"
        },
        {
          "internalType": "uint256",
          "name": "_size",
          "type": "uint256"
        },
        {
          "internalType": "string",
          "name": "_state",
          "type": "string"
        },
        {
          "internalType": "string",
          "name": "_district",
          "type": "string"
        },
        {
          "internalType": "uint256",
          "name": "_surveyNumber",
          "type": "uint256"
        }
      ],
      "name": "createProperty",
      "outputs": [
        {
          "internalType": "uint256",
          "name": "",
          "type": "uint256"
        }
      ],
      "payable": false,
      "stateMutability": "nonpayable",
      "type": "function"
    },
    {
      "constant": false,
      "inputs": [
        {
          "internalType": "uint256",
          "name": "_ID",
          "type": "uint256"
        }
      ],
      "name": "approveProperty",
      "outputs": [
        {
          "internalType": "bool",
          "name": "",
          "type": "bool"
        }
      ],
      "payable": false,
      "stateMutability": "nonpayable",
      "type": "function"
    },
    {
      "constant": false,
      "inputs": [
        {
          "internalType": "uint256",
          "name": "_ID",
          "type": "uint256"
        }
      ],
      "name": "rejectProperty",
      "outputs": [
        {
          "internalType": "bool",
          "name": "",
          "type": "bool"
        }
      ],
      "payable": false,
      "stateMutability": "nonpayable",
      "type": "function"
    },
    {
      "constant": false,
      "inputs": [
        {
          "internalType": "uint256",
          "name": "_ID",
          "type": "uint256"
        },
        {
          "internalType": "uint256",
          "name": "_newValue",
          "type": "uint256"
        }
      ],
      "name": "changeValue",
      "outputs": [
        {
          "internalType": "bool",
          "name": "",
          "type": "bool"
        }
      ],
      "payable": false,
      "stateMutability": "nonpayable",
      "type": "function"
    },
    {
      "constant": false,
      "inputs": [
        {
          "internalType": "uint256",
          "name": "_ID",
          "type": "uint256"
        },
        {
          "internalType": "address",
          "name": "_newOwner",
          "type": "address"
        }
      ],
      "name": "sale",
      "outputs": [
        {
          "internalType": "bool",
          "name": "",
          "type": "bool"
        }
      ],
      "payable": false,
      "stateMutability": "nonpayable",
      "type": "function"
    },
    {
      "constant": false,
      "inputs": [
        {
          "internalType": "uint256",
          "name": "_ID",
          "type": "uint256"
        }
      ],
      "name": "approveSale",
      "outputs": [
        {
          "internalType": "bool",
          "name": "",
          "type": "bool"
        }
      ],
      "payable": false,
      "stateMutability": "nonpayable",
      "type": "function"
    },
    {
      "constant": true,
      "inputs": [
        {
          "internalType": "uint256",
          "name": "_ID",
          "type": "uint256"
        }
      ],
      "name": "getPropertyDetails",
      "outputs": [
        {
          "internalType": "enum asset.Status",
          "name": "",
          "type": "uint8"
        },
        {
          "internalType": "uint256",
          "name": "",
          "type": "uint256"
        },
        {
          "internalType": "address",
          "name": "",
          "type": "address"
        },
        {
          "internalType": "uint256",
          "name": "",
          "type": "uint256"
        },
        {
          "internalType": "string",
          "name": "",
          "type": "string"
        },
        {
          "internalType": "string",
          "name": "",
          "type": "string"
        },
        {
          "internalType": "uint256",
          "name": "",
          "type": "uint256"
        }
      ],
      "payable": false,
      "stateMutability": "view",
      "type": "function"
    }
  ],
  "bytecode": "0x608060405234801561001057600080fd5b50336000806101000a81548173ffffffffffffffffffffffffffffffffffffffff021916908373ffffffffffffffffffffffffffffffffffffffff1602179055506002600360008060009054906101000a900473ffffffffffffffffffffffffffffffffffffffff1673ffffffffffffffffffffffffffffffffffffffff1673ffffffffffffffffffffffffffffffffffffffff168152602001908152602001600020819055506001600460008060009054906101000a900473ffffffffffffffffffffffffffffffffffffffff1673ffffffffffffffffffffffffffffffffffffffff1673ffffffffffffffffffffffffffffffffffffffff16815260200190815260200160002060006101000a81548160ff021916908315150217905550611e1e8061013f6000396000f3fe608060405234801561001057600080fd5b50600436106100f55760003560e01c80638709b2e711610097578063c902d02c11610066578063c902d02c14610706578063e35fe36614610774578063e9b66f8c146107d0578063f7b1080814610816576100f5565b80638709b2e71461059c578063a3684ca3146105ec578063a87430ba14610652578063c1d5e84f146106aa576100f5565b806326defa73116100d357806326defa731461045457806327983fcf146104b057806332282f8e146104f65780633c815d9e14610552576100f5565b8063076215b6146100fa578063126dbe431461029e57806314a72feb1461040e575b600080fd5b610288600480360360c081101561011057600080fd5b8101908080359060200190929190803573ffffffffffffffffffffffffffffffffffffffff169060200190929190803590602001909291908035906020019064010000000081111561016157600080fd5b82018360208201111561017357600080fd5b8035906020019184600183028401116401000000008311171561019557600080fd5b91908080601f016020809104026020016040519081016040528093929190818152602001838380828437600081840152601f19601f820116905080830192505050505050509192919290803590602001906401000000008111156101f857600080fd5b82018360208201111561020a57600080fd5b8035906020019184600183028401116401000000008311171561022c57600080fd5b91908080601f016020809104026020016040519081016040528093929190818152602001838380828437600081840152601f19601f8201169050808301925050505050505091929192908035906020019092919050505061098d565b6040518082815260200191505060405180910390f35b6102ca600480360360208110156102b457600080fd5b8101908080359060200190929190505050610cc4565b604051808860038111156102da57fe5b60ff1681526020018781526020018673ffffffffffffffffffffffffffffffffffffffff1673ffffffffffffffffffffffffffffffffffffffff1681526020018581526020018060200180602001848152602001838103835286818151815260200191508051906020019080838360005b8381101561036657808201518184015260208101905061034b565b50505050905090810190601f1680156103935780820380516001836020036101000a031916815260200191505b50838103825285818151815260200191508051906020019080838360005b838110156103cc5780820151818401526020810190506103b1565b50505050905090810190601f1680156103f95780820380516001836020036101000a031916815260200191505b50995050505050505050505060405180910390f35b61043a6004803603602081101561042457600080fd5b8101908080359060200190929190505050610eec565b604051808215151515815260200191505060405180910390f35b6104966004803603602081101561046a57600080fd5b81019080803573ffffffffffffffffffffffffffffffffffffffff1690602001909291905050506110e0565b604051808215151515815260200191505060405180910390f35b6104dc600480360360208110156104c657600080fd5b810190808035906020019092919050505061127a565b604051808215151515815260200191505060405180910390f35b6105386004803603602081101561050c57600080fd5b81019080803573ffffffffffffffffffffffffffffffffffffffff1690602001909291905050506113cd565b604051808215151515815260200191505060405180910390f35b61055a61151e565b604051808273ffffffffffffffffffffffffffffffffffffffff1673ffffffffffffffffffffffffffffffffffffffff16815260200191505060405180910390f35b6105d2600480360360408110156105b257600080fd5b810190808035906020019092919080359060200190929190505050611543565b604051808215151515815260200191505060405180910390f35b6106386004803603604081101561060257600080fd5b8101908080359060200190929190803573ffffffffffffffffffffffffffffffffffffffff169060200190929190505050611646565b604051808215151515815260200191505060405180910390f35b6106946004803603602081101561066857600080fd5b81019080803573ffffffffffffffffffffffffffffffffffffffff169060200190929190505050611847565b6040518082815260200191505060405180910390f35b6106ec600480360360208110156106c057600080fd5b81019080803573ffffffffffffffffffffffffffffffffffffffff16906020019092919050505061185f565b604051808215151515815260200191505060405180910390f35b6107326004803603602081101561071c57600080fd5b81019080803590602001909291905050506119f9565b604051808273ffffffffffffffffffffffffffffffffffffffff1673ffffffffffffffffffffffffffffffffffffffff16815260200191505060405180910390f35b6107b66004803603602081101561078a57600080fd5b81019080803573ffffffffffffffffffffffffffffffffffffffff169060200190929190505050611a2c565b604051808215151515815260200191505060405180910390f35b6107fc600480360360208110156107e657600080fd5b8101908080359060200190929190505050611a4c565b604051808215151515815260200191505060405180910390f35b6108426004803603602081101561082c57600080fd5b8101908080359060200190929190505050611b9f565b6040518089815260200188600381111561085857fe5b60ff1681526020018781526020018673ffffffffffffffffffffffffffffffffffffffff1673ffffffffffffffffffffffffffffffffffffffff1681526020018581526020018060200180602001848152602001838103835286818151815260200191508051906020019080838360005b838110156108e45780820151818401526020810190506108c9565b50505050905090810190601f1680156109115780820380516001836020036101000a031916815260200191505b50838103825285818151815260200191508051906020019080838360005b8381101561094a57808201518184015260208101905061092f565b50505050905090810190601f1680156109775780820380516001836020036101000a031916815260200191505b509a505050505050505050505060405180910390f35b60006002600360003373ffffffffffffffffffffffffffffffffffffffff1673ffffffffffffffffffffffffffffffffffffffff16815260200190815260200160002054148015610a275750600460003373ffffffffffffffffffffffffffffffffffffffff1673ffffffffffffffffffffffffffffffffffffffff16815260200190815260200160002060009054906101000a900460ff165b610a3057600080fd5b85600460008273ffffffffffffffffffffffffffffffffffffffff1673ffffffffffffffffffffffffffffffffffffffff16815260200190815260200160002060009054906101000a900460ff16610a8757600080fd5b600064e8d4a51000868689876040516020018085805190602001908083835b60208310610ac95780518252602082019150602081019050602083039250610aa6565b6001836020036101000a03801982511681845116808217855250505050505090500184805190602001908083835b60208310610b1a5780518252602082019150602081019050602083039250610af7565b6001836020036101000a0380198251168184511680821785525050505050509050018381526020018281526020019450505050506040516020818303038152906040528051906020012060001c81610b6e57fe5b06905060405180610100016040528082815260200160016003811115610b9057fe5b81526020018a81526020018973ffffffffffffffffffffffffffffffffffffffff16815260200188815260200187815260200186815260200185815250600160008381526020019081526020016000206000820151816000015560208201518160010160006101000a81548160ff02191690836003811115610c0e57fe5b02179055506040820151816002015560608201518160030160006101000a81548173ffffffffffffffffffffffffffffffffffffffff021916908373ffffffffffffffffffffffffffffffffffffffff1602179055506080820151816004015560a0820151816005019080519060200190610c8a929190611d44565b5060c0820151816006019080519060200190610ca7929190611d44565b5060e0820151816007015590505080925050509695505050505050565b60008060008060608060006001600089815260200190815260200160002060010160009054906101000a900460ff16600160008a815260200190815260200160002060020154600160008b815260200190815260200160002060030160009054906101000a900473ffffffffffffffffffffffffffffffffffffffff16600160008c815260200190815260200160002060040154600160008d8152602001908152602001600020600501600160008e8152602001908152602001600020600601600160008f815260200190815260200160002060070154828054600181600116156101000203166002900480601f016020809104026020016040519081016040528092919081815260200182805460018160011615610100020316600290048015610e305780601f10610e0557610100808354040283529160200191610e30565b820191906000526020600020905b815481529060010190602001808311610e1357829003601f168201915b50505050509250818054600181600116156101000203166002900480601f016020809104026020016040519081016040528092919081815260200182805460018160011615610100020316600290048015610ecc5780601f10610ea157610100808354040283529160200191610ecc565b820191906000526020600020905b815481529060010190602001808311610eaf57829003601f168201915b505050505091509650965096509650965096509650919395979092949650565b60006002600360003373ffffffffffffffffffffffffffffffffffffffff1673ffffffffffffffffffffffffffffffffffffffff16815260200190815260200160002054148015610f865750600460003373ffffffffffffffffffffffffffffffffffffffff1673ffffffffffffffffffffffffffffffffffffffff16815260200190815260200160002060009054906101000a900460ff165b610f8f57600080fd5b600073ffffffffffffffffffffffffffffffffffffffff166002600084815260200190815260200160002060009054906101000a900473ffffffffffffffffffffffffffffffffffffffff1673ffffffffffffffffffffffffffffffffffffffff161415610ffc57600080fd5b6002600083815260200190815260200160002060009054906101000a900473ffffffffffffffffffffffffffffffffffffffff166001600084815260200190815260200160002060030160006101000a81548173ffffffffffffffffffffffffffffffffffffffff021916908373ffffffffffffffffffffffffffffffffffffffff16021790555060006002600084815260200190815260200160002060006101000a81548173ffffffffffffffffffffffffffffffffffffffff021916908373ffffffffffffffffffffffffffffffffffffffff16021790555060019050919050565b60006002600360003373ffffffffffffffffffffffffffffffffffffffff1673ffffffffffffffffffffffffffffffffffffffff1681526020019081526020016000205414801561117a5750600460003373ffffffffffffffffffffffffffffffffffffffff1673ffffffffffffffffffffffffffffffffffffffff16815260200190815260200160002060009054906101000a900460ff165b61118357600080fd5b6000600360008473ffffffffffffffffffffffffffffffffffffffff1673ffffffffffffffffffffffffffffffffffffffff16815260200190815260200160002054146111cf57600080fd5b60001515600460008473ffffffffffffffffffffffffffffffffffffffff1673ffffffffffffffffffffffffffffffffffffffff16815260200190815260200160002060009054906101000a900460ff1615151461122c57600080fd5b6002600360008473ffffffffffffffffffffffffffffffffffffffff1673ffffffffffffffffffffffffffffffffffffffff1681526020019081526020016000208190555060019050919050565b60006002600360003373ffffffffffffffffffffffffffffffffffffffff1673ffffffffffffffffffffffffffffffffffffffff168152602001908152602001600020541480156113145750600460003373ffffffffffffffffffffffffffffffffffffffff1673ffffffffffffffffffffffffffffffffffffffff16815260200190815260200160002060009054906101000a900460ff165b61131d57600080fd5b3373ffffffffffffffffffffffffffffffffffffffff166001600084815260200190815260200160002060030160009054906101000a900473ffffffffffffffffffffffffffffffffffffffff1673ffffffffffffffffffffffffffffffffffffffff16141561138c57600080fd5b60036001600084815260200190815260200160002060010160006101000a81548160ff021916908360038111156113bf57fe5b021790555060019050919050565b60006002600360003373ffffffffffffffffffffffffffffffffffffffff1673ffffffffffffffffffffffffffffffffffffffff168152602001908152602001600020541480156114675750600460003373ffffffffffffffffffffffffffffffffffffffff1673ffffffffffffffffffffffffffffffffffffffff16815260200190815260200160002060009054906101000a900460ff165b61147057600080fd5b6000600360008473ffffffffffffffffffffffffffffffffffffffff1673ffffffffffffffffffffffffffffffffffffffff1681526020019081526020016000205414156114bd57600080fd5b6001600460008473ffffffffffffffffffffffffffffffffffffffff1673ffffffffffffffffffffffffffffffffffffffff16815260200190815260200160002060006101000a81548160ff02191690831515021790555060019050919050565b6000809054906101000a900473ffffffffffffffffffffffffffffffffffffffff1681565b6000823373ffffffffffffffffffffffffffffffffffffffff166001600083815260200190815260200160002060030160009054906101000a900473ffffffffffffffffffffffffffffffffffffffff1673ffffffffffffffffffffffffffffffffffffffff16146115b457600080fd5b600073ffffffffffffffffffffffffffffffffffffffff166002600086815260200190815260200160002060009054906101000a900473ffffffffffffffffffffffffffffffffffffffff1673ffffffffffffffffffffffffffffffffffffffff161461162057600080fd5b826001600086815260200190815260200160002060020181905550600191505092915050565b6000823373ffffffffffffffffffffffffffffffffffffffff166001600083815260200190815260200160002060030160009054906101000a900473ffffffffffffffffffffffffffffffffffffffff1673ffffffffffffffffffffffffffffffffffffffff16146116b757600080fd5b82600460008273ffffffffffffffffffffffffffffffffffffffff1673ffffffffffffffffffffffffffffffffffffffff16815260200190815260200160002060009054906101000a900460ff1661170e57600080fd5b8373ffffffffffffffffffffffffffffffffffffffff166001600087815260200190815260200160002060030160009054906101000a900473ffffffffffffffffffffffffffffffffffffffff1673ffffffffffffffffffffffffffffffffffffffff16141561177d57600080fd5b600073ffffffffffffffffffffffffffffffffffffffff166002600087815260200190815260200160002060009054906101000a900473ffffffffffffffffffffffffffffffffffffffff1673ffffffffffffffffffffffffffffffffffffffff16146117e957600080fd5b836002600087815260200190815260200160002060006101000a81548173ffffffffffffffffffffffffffffffffffffffff021916908373ffffffffffffffffffffffffffffffffffffffff16021790555060019250505092915050565b60036020528060005260406000206000915090505481565b60006002600360003373ffffffffffffffffffffffffffffffffffffffff1673ffffffffffffffffffffffffffffffffffffffff168152602001908152602001600020541480156118f95750600460003373ffffffffffffffffffffffffffffffffffffffff1673ffffffffffffffffffffffffffffffffffffffff16815260200190815260200160002060009054906101000a900460ff165b61190257600080fd5b6000600360008473ffffffffffffffffffffffffffffffffffffffff1673ffffffffffffffffffffffffffffffffffffffff168152602001908152602001600020541461194e57600080fd5b60001515600460008473ffffffffffffffffffffffffffffffffffffffff1673ffffffffffffffffffffffffffffffffffffffff16815260200190815260200160002060009054906101000a900460ff161515146119ab57600080fd5b6001600360008473ffffffffffffffffffffffffffffffffffffffff1673ffffffffffffffffffffffffffffffffffffffff1681526020019081526020016000208190555060019050919050565b60026020528060005260406000206000915054906101000a900473ffffffffffffffffffffffffffffffffffffffff1681565b60046020528060005260406000206000915054906101000a900460ff1681565b60006002600360003373ffffffffffffffffffffffffffffffffffffffff1673ffffffffffffffffffffffffffffffffffffffff16815260200190815260200160002054148015611ae65750600460003373ffffffffffffffffffffffffffffffffffffffff1673ffffffffffffffffffffffffffffffffffffffff16815260200190815260200160002060009054906101000a900460ff165b611aef57600080fd5b3373ffffffffffffffffffffffffffffffffffffffff166001600084815260200190815260200160002060030160009054906101000a900473ffffffffffffffffffffffffffffffffffffffff1673ffffffffffffffffffffffffffffffffffffffff161415611b5e57600080fd5b60026001600084815260200190815260200160002060010160006101000a81548160ff02191690836003811115611b9157fe5b021790555060019050919050565b60016020528060005260406000206000915090508060000154908060010160009054906101000a900460ff16908060020154908060030160009054906101000a900473ffffffffffffffffffffffffffffffffffffffff1690806004015490806005018054600181600116156101000203166002900480601f016020809104026020016040519081016040528092919081815260200182805460018160011615610100020316600290048015611c965780601f10611c6b57610100808354040283529160200191611c96565b820191906000526020600020905b815481529060010190602001808311611c7957829003601f168201915b505050505090806006018054600181600116156101000203166002900480601f016020809104026020016040519081016040528092919081815260200182805460018160011615610100020316600290048015611d345780601f10611d0957610100808354040283529160200191611d34565b820191906000526020600020905b815481529060010190602001808311611d1757829003601f168201915b5050505050908060070154905088565b828054600181600116156101000203166002900490600052602060002090601f016020900481019282601f10611d8557805160ff1916838001178555611db3565b82800160010185558215611db3579182015b82811115611db2578251825591602001919060010190611d97565b5b509050611dc09190611dc4565b5090565b611de691905b80821115611de2576000816000905550600101611dca565b5090565b9056fea265627a7a7231582094a68969b24bac255facc0749c158df710aa3abe161ce8af30b3a4e0ac784cb764736f6c63430005100032",
  "source": "pragma solidity ^0.5.0;\r\n\r\ncontract asset {\r\n\r\n    address public originator;\r\n\tenum Status { NotFound, PendingForApproval, ApprovedForTransactions, ApplicationRejected }\r\n\r\n\tstruct landDetails {\r\n        uint id;    //propertyid\r\n\t\tStatus status;\r\n\t\tuint value;\r\n\t\taddress currOwner;\r\n        uint size;\r\n        string state;\r\n        string district;\r\n        uint surveyNumber;  //alloted by govt\r\n\t}\r\n\r\n    \t// Initializing the User Contract.\r\n\tconstructor() public  {\r\n\t\toriginator = msg.sender;\r\n\t\tusers[originator] = 2;\r\n\t\tverifiedUsers[originator] = true;\r\n\t}\r\n\r\n\tmapping(uint => landDetails) public properties;\r\n\tmapping(uint => address) public propertiesUnderTxn;\r\n\r\n    mapping(address => int) public users;   //maps users to level of authority \r\n    mapping(address => bool) public verifiedUsers;\r\n\r\n\tfunction addNewUser(address _newUser) public verifyAuthority returns (bool) {\r\n\t    require(users[_newUser] == 0);\r\n\t    require(verifiedUsers[_newUser] == false);\r\n\t    users[_newUser] = 1;\r\n\t    return true;\r\n\t}\r\n\r\n\r\n\tfunction addAuthority(address _newAuthority) public verifyAuthority returns (bool) {\r\n\t    require(users[_newAuthority] == 0);\r\n\t    require(verifiedUsers[_newAuthority] == false);\r\n\t    users[_newAuthority] = 2;\r\n\t    return true;\r\n\t}\r\n\r\n\tfunction approveUsers(address _newUser) verifyAuthority public returns (bool) {\r\n\t    require(users[_newUser] != 0);\r\n\t    verifiedUsers[_newUser] = true;\r\n\t    return true;\r\n\t}\r\n\r\n\tmodifier verifyOwner(uint _propId) {\r\n\t\trequire(properties[_propId].currOwner == msg.sender);\r\n\t\t_;\r\n\t}\r\n\r\n\tmodifier verifyUser(address _user) {\r\n\t    require(verifiedUsers[_user]);\r\n\t    _;\r\n\t}\r\n\r\n\r\n\tmodifier verifyAuthority() {\r\n\t    require(users[msg.sender] == 2 && verifiedUsers[msg.sender]);\r\n\t    _;\r\n\t}\r\n\r\n\r\n\r\n\t// Create a new Property.\r\n\tfunction createProperty(uint _value,address _currOwner,uint _size,string memory _state, string memory _district, uint _surveyNumber) public verifyAuthority verifyUser(_currOwner) returns (uint) {\r\n        uint tempID = uint(keccak256(abi.encodePacked(_state,_district,_size,_surveyNumber)))%1000000000000;\r\n\t\tproperties[tempID] = landDetails(tempID, Status.PendingForApproval, _value, _currOwner, _size, _state ,_district, _surveyNumber);\r\n\t\treturn tempID;\r\n\t}\r\n\r\n\t// Approve the new Property.\r\n\tfunction approveProperty(uint _ID) public verifyAuthority returns (bool){\r\n\t\trequire(properties[_ID].currOwner != msg.sender);\r\n\t\tproperties[_ID].status = Status.ApprovedForTransactions;\r\n\t\treturn true;\r\n\t}\r\n\r\n\t// Reject the new Property.\r\n\tfunction rejectProperty(uint _ID) public  verifyAuthority returns (bool){\r\n\t\trequire(properties[_ID].currOwner != msg.sender);\r\n\t\tproperties[_ID].status = Status.ApplicationRejected;\r\n\t\treturn true;\r\n\t}\r\n\r\n    \t// Price ReEvaluation\r\n    function changeValue(uint _ID, uint _newValue) public verifyOwner(_ID) returns (bool) {\r\n        require(propertiesUnderTxn[_ID] == address(0));\r\n        properties[_ID].value = _newValue;\r\n        return true;\r\n    }\r\n\r\n\r\n\t// Request Sale\r\n\tfunction sale(uint _ID, address _newOwner) public verifyOwner(_ID) verifyUser(_newOwner) returns (bool) {\r\n\t\trequire(properties[_ID].currOwner != _newOwner);\r\n\t\trequire(propertiesUnderTxn[_ID] == address(0));\r\n\t\tpropertiesUnderTxn[_ID] = _newOwner;\r\n\t\treturn true;\r\n\t}\r\n\r\n\t// Approve Sale\r\n\tfunction approveSale(uint _ID) verifyAuthority public returns (bool) {\r\n\t    require(propertiesUnderTxn[_ID] != address(0));\r\n\t    properties[_ID].currOwner = propertiesUnderTxn[_ID];\r\n\t    propertiesUnderTxn[_ID] = address(0);\r\n\t    return true;\r\n\t}\r\n\r\n\r\n\t// PropertyDetails\r\n\tfunction getPropertyDetails(uint _ID) public view returns (Status, uint, address, uint, string memory, string memory, uint) {\r\n\t\treturn (properties[_ID].status, properties[_ID].value, properties[_ID].currOwner, properties[_ID].size, properties[_ID].state, properties[_ID].district, properties[_ID].surveyNumber);\r\n\t}\r\n\r\n\t\r\n}",
  "sourcePath": "C:/Users/pbisen/Desktop/final/contracts/land.sol",
  "compiler": {
    "name": "solc",
    "version": "0.5.16+commit.9c3226ce.Emscripten.clang"
  },
  "schemaVersion": "3.3.4",
  "updatedAt": "2021-04-22T20:36:33.470Z",
  "devdoc": {
    "methods": {}
  },
  "userdoc": {
    "methods": {}
  }
}